{"abi":[{"type":"constructor","inputs":[{"name":"entranceFee","type":"uint256","internalType":"uint256"},{"name":"interval","type":"uint256","internalType":"uint256"},{"name":"vrfCoordinator","type":"address","internalType":"address"},{"name":"gasLane","type":"bytes32","internalType":"bytes32"},{"name":"subscriptionId","type":"uint64","internalType":"uint64"},{"name":"callbackGasLimit","type":"uint32","internalType":"uint32"}],"stateMutability":"nonpayable"},{"type":"function","name":"checkUpKeep","inputs":[{"name":"","type":"bytes","internalType":"bytes"}],"outputs":[{"name":"upkeepNeeded","type":"bool","internalType":"bool"},{"name":"","type":"bytes","internalType":"bytes"}],"stateMutability":"view"},{"type":"function","name":"enterRaffle","inputs":[],"outputs":[],"stateMutability":"payable"},{"type":"function","name":"getEntraceFee","inputs":[],"outputs":[{"name":"","type":"uint256","internalType":"uint256"}],"stateMutability":"view"},{"type":"function","name":"getLastTimestamp","inputs":[],"outputs":[{"name":"","type":"uint256","internalType":"uint256"}],"stateMutability":"view"},{"type":"function","name":"getLengthOfPlayers","inputs":[],"outputs":[{"name":"","type":"uint256","internalType":"uint256"}],"stateMutability":"view"},{"type":"function","name":"getPlayer","inputs":[{"name":"indexOfPlayer","type":"uint256","internalType":"uint256"}],"outputs":[{"name":"","type":"address","internalType":"address"}],"stateMutability":"view"},{"type":"function","name":"getRaffleState","inputs":[],"outputs":[{"name":"","type":"uint8","internalType":"enum Raffle.RaffleState"}],"stateMutability":"view"},{"type":"function","name":"getRecentWinner","inputs":[],"outputs":[{"name":"","type":"address","internalType":"address"}],"stateMutability":"view"},{"type":"function","name":"performUpkeep","inputs":[{"name":"","type":"bytes","internalType":"bytes"}],"outputs":[],"stateMutability":"nonpayable"},{"type":"function","name":"rawFulfillRandomWords","inputs":[{"name":"requestId","type":"uint256","internalType":"uint256"},{"name":"randomWords","type":"uint256[]","internalType":"uint256[]"}],"outputs":[],"stateMutability":"nonpayable"},{"type":"event","name":"EnteredRaffle","inputs":[{"name":"player","type":"address","indexed":true,"internalType":"address"}],"anonymous":false},{"type":"event","name":"PickedWinner","inputs":[{"name":"winner","type":"address","indexed":true,"internalType":"address"}],"anonymous":false},{"type":"event","name":"RequestedRaffleWinner","inputs":[{"name":"requestId","type":"uint256","indexed":true,"internalType":"uint256"}],"anonymous":false},{"type":"error","name":"OnlyCoordinatorCanFulfill","inputs":[{"name":"have","type":"address","internalType":"address"},{"name":"want","type":"address","internalType":"address"}]},{"type":"error","name":"Raffle_NotEnoughEthSent","inputs":[]},{"type":"error","name":"Raffle__RaffleNotOpen","inputs":[]},{"type":"error","name":"Raffle__TransferFailed","inputs":[]},{"type":"error","name":"Raffle__UpkeepNotNeeded","inputs":[{"name":"currentBalance","type":"uint256","internalType":"uint256"},{"name":"numPlayers","type":"uint256","internalType":"uint256"},{"name":"raffleState","type":"uint256","internalType":"uint256"}]}],"bytecode":{"object":"0x61016060405234801561001157600080fd5b50604051610ca6380380610ca683398101604081905261003091610087565b6001600160a01b0393909316608081905260a09590955260c0939093524260015560e093909352610100929092526001600160401b03166101205263ffffffff16610140526002805460ff60a01b19169055610112565b60008060008060008060c087890312156100a057600080fd5b86516020880151604089015191975095506001600160a01b03811681146100c657600080fd5b6060880151608089015191955093506001600160401b03811681146100ea57600080fd5b60a088015190925063ffffffff8116811461010457600080fd5b809150509295509295509295565b60805160a05160c05160e051610100516101205161014051610b2c61017a600039600061045c01526000610425015260006103ff0152600061049a015260006105430152600081816101af01526102820152600081816101fe01526102400152610b2c6000f3fe6080604052600436106100915760003560e01c80634585e33b116100595780634585e33b14610120578063473f1ddc146101405780635e6c102e14610172578063ce147cf3146101a0578063e55ae4e8146101d357600080fd5b80630ea3df3814610096578063115cbaf5146100ba5780631fe543e3146100e15780632cfcc53914610103578063378997701461010b575b600080fd5b3480156100a257600080fd5b506000545b6040519081526020015b60405180910390f35b3480156100c657600080fd5b50600254600160a01b900460ff166040516100b191906107e4565b3480156100ed57600080fd5b506101016100fc366004610853565b6101f3565b005b610101610280565b34801561011757600080fd5b506001546100a7565b34801561012c57600080fd5b5061010161013b366004610905565b61036b565b34801561014c57600080fd5b506002546001600160a01b03165b6040516001600160a01b0390911681526020016100b1565b34801561017e57600080fd5b5061019261018d366004610977565b61053b565b6040516100b1929190610a0c565b3480156101ac57600080fd5b507f00000000000000000000000000000000000000000000000000000000000000006100a7565b3480156101df57600080fd5b5061015a6101ee366004610a65565b6105e8565b336001600160a01b037f000000000000000000000000000000000000000000000000000000000000000016146102725760405163073e64fd60e21b81523360048201526001600160a01b037f00000000000000000000000000000000000000000000000000000000000000001660248201526044015b60405180910390fd5b61027c8282610617565b5050565b7f00000000000000000000000000000000000000000000000000000000000000003410156102c157604051630994ba8960e11b815260040160405180910390fd5b6000600254600160a01b900460ff1660018111156102e1576102e16107ce565b146102ff5760405163349289c560e21b815260040160405180910390fd5b600080546001810182558180527f290decd9548b62a8d60345a988386fc84ba6bc95484008f6362f93160ef3e5630180546001600160a01b0319163390811790915560405190917f819fbd717c9d0b421352c5116a644ca68ba176960c33f406f08d98a27370ca2791a2565b60006103856040518060200160405280600081525061053b565b509050806103db57600054600254479190600160a01b900460ff1660018111156103b1576103b16107ce565b604051632c2193d560e11b8152600481019390935260248301919091526044820152606401610269565b60028054600160a01b60ff60a01b199091161790556040516305d3b1d360e41b81527f000000000000000000000000000000000000000000000000000000000000000060048201527f000000000000000000000000000000000000000000000000000000000000000067ffffffffffffffff166024820152600360448201527f000000000000000000000000000000000000000000000000000000000000000063ffffffff166064820152600160848201526000906001600160a01b037f00000000000000000000000000000000000000000000000000000000000000001690635d3b1d309060a4016020604051808303816000875af11580156104e3573d6000803e3d6000fd5b505050506040513d601f19601f820116820180604052508101906105079190610a7e565b60405190915081907fcd6e45c8998311cab7e9d4385596cac867e20a0587194b954fa3a731c93ce78b90600090a250505050565b6000606060007f0000000000000000000000000000000000000000000000000000000000000000600154426105709190610a97565b101590506000600260149054906101000a900460ff166001811115610597576105976107ce565b600054901591504715159015158380156105ae5750825b80156105b75750815b80156105c05750805b60408051808201909152600381526203078360ec1b6020820152909890975095505050505050565b60008082815481106105fc576105fc610abe565b6000918252602090912001546001600160a01b031692915050565b6000805482518390839061062d5761062d610abe565b602002602001015161063f9190610ad4565b9050600080828154811061065557610655610abe565b600091825260208083209190910154600280546001600160a81b0319166001600160a01b039092169182179055604080518481529283019081905291519093506106a0929190610754565b50426001556040516001600160a01b038216907fb112587e57bfa970257f3d54fc52859c6300f6bd7a982462c320fed45c2530ed90600090a26002546040516000916001600160a01b03169047908381818185875af1925050503d8060008114610726576040519150601f19603f3d011682016040523d82523d6000602084013e61072b565b606091505b505090508061074d5760405163a1d04b3960e01b815260040160405180910390fd5b5050505050565b8280548282559060005260206000209081019282156107a9579160200282015b828111156107a957825182546001600160a01b0319166001600160a01b03909116178255602090920191600190910190610774565b506107b59291506107b9565b5090565b5b808211156107b557600081556001016107ba565b634e487b7160e01b600052602160045260246000fd5b602081016002831061080657634e487b7160e01b600052602160045260246000fd5b91905290565b634e487b7160e01b600052604160045260246000fd5b604051601f8201601f1916810167ffffffffffffffff8111828210171561084b5761084b61080c565b604052919050565b6000806040838503121561086657600080fd5b8235915060208084013567ffffffffffffffff8082111561088657600080fd5b818601915086601f83011261089a57600080fd5b8135818111156108ac576108ac61080c565b8060051b91506108bd848301610822565b81815291830184019184810190898411156108d757600080fd5b938501935b838510156108f5578435825293850193908501906108dc565b8096505050505050509250929050565b6000806020838503121561091857600080fd5b823567ffffffffffffffff8082111561093057600080fd5b818501915085601f83011261094457600080fd5b81358181111561095357600080fd5b86602082850101111561096557600080fd5b60209290920196919550909350505050565b6000602080838503121561098a57600080fd5b823567ffffffffffffffff808211156109a257600080fd5b818501915085601f8301126109b657600080fd5b8135818111156109c8576109c861080c565b6109da601f8201601f19168501610822565b915080825286848285010111156109f057600080fd5b8084840185840137600090820190930192909252509392505050565b82151581526000602060406020840152835180604085015260005b81811015610a4357858101830151858201606001528201610a27565b506000606082860101526060601f19601f830116850101925050509392505050565b600060208284031215610a7757600080fd5b5035919050565b600060208284031215610a9057600080fd5b5051919050565b81810381811115610ab857634e487b7160e01b600052601160045260246000fd5b92915050565b634e487b7160e01b600052603260045260246000fd5b600082610af157634e487b7160e01b600052601260045260246000fd5b50069056fea26469706673582212205a6738d3cd41745269af05db8b4f45def6c8a6b92ebf05c48d4147d8da94834664736f6c63430008170033","linkReferences":{}},"methodIdentifiers":{"checkUpKeep(bytes)":"5e6c102e","enterRaffle()":"2cfcc539","getEntraceFee()":"ce147cf3","getLastTimestamp()":"37899770","getLengthOfPlayers()":"0ea3df38","getPlayer(uint256)":"e55ae4e8","getRaffleState()":"115cbaf5","getRecentWinner()":"473f1ddc","performUpkeep(bytes)":"4585e33b","rawFulfillRandomWords(uint256,uint256[])":"1fe543e3"},"id":27}